:1000000000000220010100001365000075BA000025
:100010001365000013650000136500000000000078
:100020000000000000000000000000001365000058
:100030001365000000000000136500001365000058
:1000400013650000136500001365000013650000D0
:100050001365000013650000714700001365000080
:1000600013650000136500001365000013650000B0
:1000700013650000136500001365000013650000A0
:1000800013650000FB6100001365000013650000AC
:100090001365000013650000136500001365000080
:1000A0001365000013650000136500001365000070
:1000B0001365000013650000000000000000000050
:1000C0001365000013650000136500001365000050
:1000D0001365000013650000136500001365000040
:1000E0001365000000000000000000000000000098
:1000F0000000000013650000000000001365000010
:1001000006F00BFA0E480F490022814201D004C0CC
:10011000FBE70D480D490E4A814202D008CA08C0CB
:10012000FAE70C484FF47001026842EA01020260EB
:10013000BFF34F8FBFF36F8F01F022FF00DE00008F
:1001400050000020208200200000002050000020ED
:10015000D0ED000088ED00E080B56F4686B00192DA
:1001600002900846039007F8051C0592002007F846
:10017000070C082A04D3FFE7039807F8070C06E0EA
:100180000198C0F108010091082810D80BE00198EF
:10019000029917F8072C07F8062C17F8062C0A7195
:1001A000086006B080BD0098082806D30DE04BF625
:1001B0008C20C0F200000AF0CBFF0398009901F0F8
:1001C0000701884007F8070CE1E74BF69C20C0F2D6
:1001D00000000AF0F6FF80B56F4682B00191002260
:1001E00007F8052C17F8052C0271016002B080BDDC
:1001F00080B56F4688B0019006900020012109F07B
:10020000D1FF02900391FFE702A809F0C3FF049019
:1002100005910498C00728B1FFE705980090079062
:1002200010B107E008B080BD01980099014400209A
:100230000871E9E700984BF6AC22C0F200020121F8
:100240000AF05AF980B56F468AB00491059006907D
:100250000791006881420BD3FFE74BF6BC20C0F248
:1002600000004BF6E022C0F2000222210AF0FDF865
:100270000499C80802460292089001F007010A4654
:100280000392099160B9FFE703980599029A114416
:1002900009790091C0F10701019107280CD807E006
:1002A00002984BF6F022C0F2000201210AF024F974
:1002B0000198082806D30FE04BF60030C0F200008A
:1002C0000AF046FF0098019901F00701C0B2C8404A
:1002D00000F001000AB080BD4BF61030C0F2000003
:1002E0000AF06FFF80B56F4688B0019105900691C6
:1002F0000430012106F066FD00F0F8FA0290039147
:10030000FFE702A806F032FD0490049838B1FFE739
:100310000198049900910791082802D309E008B0D8
:1003200080BD0099019A087802F007029040087099
:10033000E7E74BF62030C0F200000AF042FF80B53C
:100340006F4688B00191059006910430012106F0B6
:1003500039FD00F0CBFA02900391FFE702A806F006
:1003600005FD0490049838B1FFE7019804990091C5
:100370000791082802D309E008B080BD0099019ACE
:10038000087802F00702D0400870E7E74BF63030FB
:10039000C0F200000AF002FF80B56F468CB00391F6
:1003A000049009900A910020012109F0FBFE0590BC
:1003B0000691FFE705A809F0EDFE07900891079860
:1003C000C00728B1FFE7089802900B9010B108E031
:1003D0000CB080BD0298039901440979019140B1A4
:1003E0000FE002984BF64032C0F2000201210AF001
:1003F00083F8019A0498029901440879104308711E
:10040000D8E702984BF65032C0F2000201210AF000
:1004100073F880B56F4681B00090007801B080BD60
:1004200080B56F46052080BD80B56F4684B00190D1
:10043000029009F024FA01F077FDFFE7019809F036
:1004400016FA20BFFAE780B56F4694B003900D907E
:1004500009F065F90146029113900E90203002F0E8
:100460000CFB01460398049112910F9109F006F9D3
:100470000690079108A8059006A901F0EBFF0498E3
:10048000059901F015FC30B1FFE70698079902F0D5
:10049000D5F914B080BD0298203002F0D0FA02984D
:1004A0001C3049F22D71C0F200010C910C9902F040
:1004B000ECFA0298103001901190012007F80E0C10
:1004C00017F80E0C02F074FF0198002107F80D1CBC
:1004D00017F80D2C02F05FFFD7E780B56F468AB0A2
:1004E000019107900891002107F80D1C012107F8E0
:1004F0000D1C00F0B2F80490059104A800F031FA48
:100500000390039850B1FFE70199039809900022E6
:1005100007F80D2C00F03BF8029003E002F090FC8D
:100520000290FFE717F80D0CC00718B9FFE7029813
:100530000AB080BDFBE780B56F4682B000900191A4
:10054000FFF7CBFF02B080BD80B56F46C4B002900C
:1005500000200390FFE70398019080B9FFE701991D
:1005600004A800EB01204BF66031C0F200014FF40B
:1005700080720BF062F8019801300390EBE702986B
:1005800004A94FF480720BF058F844B080BD80B5D8
:100590006F4686B001910290049102981C3040F29F
:1005A0004741C0F200010391039902F06EFA0199EC
:1005B0000298203002F04DFA029800F044F80590BD
:1005C00002F046FC06B080BD80B56F468AB003904D
:1005D0000398103001900890012007F8150C17F8C7
:1005E000150C02F0E5FE019809F00DF8002107F85E
:1005F0000B1C07F80A1C17F80B3C17F80A2CEC46E2
:10060000CCF8002040F2011202F005FF059006919F
:1006100005A802F0C9FB029007F8010C022007F8B8
:10062000090C17F8090C02F0C3FE029803A902F0A6
:1006300089FA0AB080BD80B56F4681B000900098FD
:10064000006801B080BD80B56F4682B0019001F0B6
:1006500089FF01F081FF02B080BD80B56F4682B096
:100660000090019100F0F7F802B080BD80B56F46B0
:1006700082B00190E0220AF0E0FF02B080BD80B5B8
:100680006F4682B0019002F030FC02B080BD80B5B0
:100690006F46ADF54E7D0790079802F043FA01468C
:1006A00006914A9002F059FE02F043FA30B9FFE792
:1006B000069802F052FE0DF54E7D80BD40F21C20E2
:1006C000C2F2000000F020F805904B9008A80190BD
:1006D000FFF73AFF01990598CD908CA802904FF44E
:1006E000807204920AF0A9FF0299049A4CA8039020
:1006F0000AF0A3FF0399049A05980AF09EFF069852
:10070000059902F038FED3E780B56F46A0B0089097
:100710000E9002F0C6FD024608980A920B911F90B7
:100720001D9010901A904FF400411B9100F500406D
:1007300001460991119002F0EEF902F015FE0C90BD
:100740000C9806F048FB38B9FFE709980C99421A53
:100750000792884216D304E008981E901C900C90D3
:10076000F3E7079812900C9805900AA801F045FC51
:100770000146059802F092F90C99421A06928842B5
:1007800011D305E04BF6CC40C0F200000AF0E0FCCB
:10079000069813900AA801F029FC0699084488429B
:1007A00004900BD305E04BF6DC40C0F200000AF0E9
:1007B000CFFC04980799884219D805E04BF6EC4025
:1007C000C0F200000AF0B1FC06990C98189019913B
:1007D00008440146019114900C9802900AA801F077
:1007E00005FC069908448842039020D30DE040F2AE
:1007F0000A00C0F2000009F0F4FA27F84A0CA7F149
:100800004A0009F05DFB09F08BFB08980299039AF6
:100810001691179211440091159100F5004002F0D5
:100820007AF9009902F0AFFD019820B080BD4BF637
:10083000FC40C0F200000AF078FC80B56F4683B03F
:100840000091014600980190029208604A600020E1
:10085000886003B080BD80B56F468AB0009101907A
:10086000039004910591069007910890FFE7019885
:100870000099099000EB01200290FFE7019802998E
:100880000AB080BD80B56F468AB000910190039098
:1008900004910591069007910890FFE7019800994F
:1008A000099008440290FFE7019802990AB080BDC0
:1008B00080B56F468AB00091019003900491059134
:1008C000069007910890FFE701980099099000EBC6
:1008D000C1000290FFE7019802990AB080BD80B57F
:1008E0006F4682B00090019102B080BD80B56F4626
:1008F00082B00090019102B080BD80B56F4682B099
:100900000090019102B080BD80B56F468DB000901F
:1009100006900121079108910168039140680190B8
:100920000990FFE7019803A90A91049004A80B908D
:1009300003980499884206D0FFE70099039800F5D0
:100940008070086002E00020029009E003980590A2
:1009500005A80C9003980290FFE702980DB080BDA7
:10096000FBE780B56F4688B000900590FFE70098E0
:10097000FFF7CAFF0390039850B1FFE70399069170
:10098000A7F1190001F0F4FD0490049818B906E0ED
:100990000020029004E004980790029000E0E6E74F
:1009A000029808B080BD80B56F468DB0009006906B
:1009B0000121079108910168039140680190099015
:1009C000FFE7019803A90A91049004A80B900398EB
:1009D0000499884205D0FFE7009903980130086028
:1009E00002E00020029009E00398059005A80C9011
:1009F00005980290FFE702980DB080BDFBE780B537
:100A00006F468DB000900690012107910891016812
:100A10000391406801900990FFE7019803A90A91AA
:100A2000049004A80B9003980499884205D0FFE72E
:100A3000009903980830086002E00020029009E065
:100A40000398059005A80C9005980290FFE702987E
:100A50000DB080BDFBE780B56F4660220AF0EDFD6A
:100A600080BD80B56F4658220AF0E7FD80BD80B595
:100A70006F4688220AF0E1FD80BD80B56F4678227E
:100A80000AF0DBFD80BDF0B503AF4DF804BD8EB0BC
:100A900001920091039004A8029002F070F8FFF711
:100AA000BFFCDDF800C0019A029B03999CF804E0AA
:100AB00081F830E0DCF800C0C1F82CC092F804C026
:100AC00081F835C01268C1F831200A46B3E8705089
:100AD000A2E8705093E8705082E8705000228A6259
:100AE00081F836000EB05DF804BBF0BD80B56F46EE
:100AF0008AB00090079002F076F800982C3005211B
:100B000002F001FBFFF7EBFE01900291FFE701A865
:100B1000FFF749FF0390039838B1FFE70398099066
:100B200002F0D3FE02F033F9F1E7009831300521ED
:100B300002F0E9FAFFF7D3FE04900591FFE704A85D
:100B4000FFF731FF0690069838B1FFE70698089046
:100B500002F0BBFE02F01BF9F1E70AB080BDD0B590
:100B600002AF81B00090B1E81C50A0E81C5091E8A1
:100B70001C5080E81C5001B0D0BD80B56F4682B0DB
:100B8000009007F8011C80F8361002B080BD80B5D7
:100B90006F46A0B00D901C902C30052102F0B3FAE6
:100BA000FFF79DFE0E900F91FFE70EA8FFF7FBFEEB
:100BB0001090109838B1FFE710981F9002F08DFE4A
:100BC00002F0E5F8F1E70D983130052102F09BFACB
:100BD0000B900A460B9914A80C90FFF72EFE0C9967
:100BE00011A801F041FA11981299139A19921891CB
:100BF0001790FFE717A801F007FA1A901B911B98AE
:100C000068B1FFE70D981A991D911B9A0A921E92DE
:100C1000826A02F002F8002840F084807CE04BF603
:100C20004750C0F20000FFF7F4FB01460D98079112
:100C3000C9B208913630FFF7ECFB079A03460898D3
:100C4000D9B2D21A099288420BD3FFE70998C0B2F1
:100C500041F27071A0FB010105910690002098B946
:100C600005E04BF65850C0F200000AF071FA4BF65E
:100C70004750C0F20000FFF7CCFBC0B20021039147
:100C800001460491B0B105E04BF66850C0F2000097
:100C90000AF071FA039B049A059906980AF018FD68
:100CA00005F0EDFD05F0A8FD0D98806A029005287D
:100CB00006D314E04BF66850C0F200000AF094FA34
:100CC0000D98029908442C3002F0FFFD02F05FF805
:100CD0000D98816A481C8842019017D307E002985A
:100CE0004BF67852C0F20002052109F005FC0D997F
:100CF00001984CF6CD42CCF6CC42A0FB02329208D1
:100D000002EB8202801A886220B080BD4BF68850C8
:100D1000C0F200000AF009FA0A9802F0D6FD02F0CB
:100D200036F867E70A9802F0D8FD02F030F861E77C
:100D3000F0B503AF4DF8048D84B094460B460146E0
:100D4000FA68B8680193039202908B640B46BCE882
:100D50007041A3E870419CE8704183E87041CA6229
:100D60008862002081F8500004B05DF8048BF0BD6B
:100D7000F0B503AF4DF804BDAEB0049106901691E6
:100D8000069890F850000146059130B1FFE70598AC
:100D9000012836D0FFE738E0FEDE0498159006996A
:100DA000886CC864069908AB1846B1E83450A0E8CE
:100DB000345091E8345080E834500699886A0190A4
:100DC000C96A0291199118900698C06C1AA90A462E
:100DD000B3E87050A2E8705093E8705082E8705009
:100DE000FFF7BDFE05F0DCFD019A029BDDF818C09F
:100DF000CDF80CC005F034FE0A4603994A63086337
:100E000006E000200028FCD10EE00498159011E0C7
:100E100005F0C6FD13911290069800F1300112A85A
:100E200005F0A0FB68BB1BE04BF69850C0F2000039
:100E30000AF000FA069838302D90159905F05CFEFE
:100E400068B1FFE7012007F8A90C0699032081F893
:100E5000500017F8A90C2EB05DF804BBF0BDD7E721
:100E60000698C06CFFF742FE002007F8A90C06990F
:100E7000012081F8500017F8A90C2EB05DF804BBD2
:100E8000F0BD0698C06CFFF782FE24A81122002353
:100E900005F01CFE249A259B9DF898006946086081
:100EA00028A802F04CFA289A299B9DF8A8000699D8
:100EB000CB638A6381F84000BCE780B56F4684B09D
:100EC000009101460098019002920393C1F88000BE
:100ED0000A604B60002081F8840004B080BD80B5BA
:100EE0006F46D0B008910A904A910A9890F8840011
:100EF0000146099130B1FFE7099801282FD0FFE79B
:100F000031E0FEDE089849900A98D0F880000590FC
:100F10004C900A9908680390496804914D904E914D
:100F200000F0B5FB4008002105F083FC039A049B08
:100F30008E460599EC46CCF804E0CCF800002AA8CF
:100F4000069000F03BF806990CA80790FFF795FD76
:100F500007990A98083078220AF06FFB06E0002013
:100F60000028FCD10AE008984990FFE70A98083069
:100F70004F90499900F03DF830B910E04BF6A85079
:100F8000C0F200000AF056F901208DF82F000A99EE
:100F9000032081F884009DF82F0050B080BD0A988E
:100FA000083001F0EFFB00208DF82F000A99012096
:100FB00081F884009DF82F0050B080BD80B56F4649
:100FC00086B094468E460146FA68B868CDF804E0CB
:100FD000CDF808C0039305920490C1F870E0C1F801
:100FE00000C04B60CA608860002081F8740006B0C1
:100FF00080BDD0B502AFC8B0069108903D91089869
:1010000090F874000146079130B1FFE70798012876
:1010100031D0FFE733E0FEDE06983C900898016F80
:101020003F91089802684368409241930898D0F82D
:1010300008E0C4684394CDF808E146924793012044
:1010400007F8390C17F8390CEC46CCF80C40CCF802
:1010500008E0CCF8000022A8049000F03BF80499C6
:101060000AA80590FFF7F7FC059908981030602250
:101070000AF0E3FA06E000200028FCD10AE0069816
:101080003C90FFE70898103045903C9900F043F8F9
:1010900030B910E04BF6B850C0F200000AF0CAF8C0
:1010A00001208DF827000899032081F874009DF82D
:1010B000270048B0D0BD0898103001F03BFB00205D
:1010C0008DF827000899012081F874009DF8270009
:1010D00048B0D0BDD0B502AF86B09C4696460C460F
:1010E00001467A693869BB680094CDF804E0CDF810
:1010F00008C007F8113C059204904C65C1F848E01F
:10110000C1F84CC081F859304A640864002081F865
:10111000580006B0D0BDF0B503AF4DF804BDCAB05D
:10112000069108902F91089890F858000146079171
:1011300030B1FFE70798012848D0FFE74AE0FEDE1C
:1011400006982E900899486D08650898D0F848C010
:10115000C16CCDF8C4C03291089890F8592007F8B6
:10116000692C089B186C5B6C35933490CDF85CC08F
:1011700018910121169169464B6008600AA816A9CA
:1011800000F007F9089805901298022813D1FFE79C
:101190004BF6C850C0F20000694608604BF61C5080
:1011A000C0F200004BF60C53C0F200032B21A7F154
:1011B000110209F0BFF905980AA9B1E83C50A0E86E
:1011C0003C5091E83C5080E83C5006E0002000286C
:1011D000FCD115E006982E9018E00898039005F0D1
:1011E000DFFB02460B46039919A800F0C3F91998D2
:1011F000049008B3FFE70498012839D0FFE752E0D4
:101200004BF6D850C0F200000AF014F808983030BD
:1012100048902E9905F070FC68B1FFE701208DF829
:1012200027000899032081F858009DF827004AB04C
:101230005DF804BBF0BDD0E70898006DFFF7A7FC90
:1012400040A81122002305F041FC409A419B9DF8E3
:1012500008016946086044A802F071F8449A459B69
:101260009DF8180108994B630A6381F83800CDE7AF
:1012700019A8011D24AB1846B1E83450A0E8345039
:1012800091E8345080E834500898006D36A90A4639
:10129000B3E87050A2E8705093E8705082E8705044
:1012A000FFF75DFCC8E70898006DFFF71FFC002002
:1012B0008DF827000899012081F858009DF8270033
:1012C0004AB05DF804BBF0BD80B56F4685B00090B4
:1012D00002900068C00730B1FFE70098011D04913B
:1012E0008068019005E00098011D039180680190DD
:1012F000FFE7019805B080BDD0B502AF8CB0059274
:1013000006910790089109920868C00758B1FFE755
:10131000059806990A1D134603930B928968049158
:10132000884226D32DE0059806990A1D134601939D
:101330000A9289680291884211D2FFE70798059ABC
:101340000199096802EB820201EBC201B1E81C506D
:10135000A0E81C5091E81C5080E81C5007E002995E
:1013600005984BF6E852C0F2000209F0C5F80CB03F
:10137000D0BD0798059A03990968895C01F03BFF85
:10138000F5E7049905984BF6F852C0F2000209F00F
:10139000B3F8F0B503AF4DF8048DA2B01346069133
:1013A000014606980791FA680892B96809919C4627
:1013B000CDF828C007F8213C1F921E91FFF784FF4B
:1013C00058B9FFE74BF60860C0F200004BF62C62FC
:1013D000C0F20002222109F048F80A98C00748B17B
:1013E000FFE70698FFF770FF0521A0FB01010590BC
:1013F000A1B910E00698FFF767FF0B90FFE7089B85
:10140000099A0B98694608600CA805F063FA0C98D5
:10141000C00748B93FE005980B90F0E74BF63C60F9
:10142000C0F2000009F0A7FEDDF818800E980390C6
:101430000F990291219120900B9C05F0B1FADDF8F3
:1014400008C0039BDDF828E00246079804920A468C
:101450000499D8F80050D8F80460D8F80880CDF87E
:10146000688019961895002514951595169517946A
:101470000EF0010E8DF86CE0CDF844C0109313927D
:10148000129110A9B1E83C50A0E83C5091E83C50C2
:1014900080E83C5003E0079902200862FFE722B091
:1014A0005DF8048BF0BDD0B502AFA0B00791014646
:1014B000079806911F9000F12001089142690BA83E
:1014C000FFF71AFF0799089849690991FFF7FCFE91
:1014D000411E0A9128B1FFE709980A9988420AD368
:1014E00005E04BF64C60C0F2000009F031FE15A893
:1014F00001F045FB09E0079800F1200104914169E2
:10150000481C8842059013D30CE0079801690BA88A
:1015100001F0DFFB07980069C0F105010391052880
:1015200022D80BE0059A049915A8FFF7E5FEECE731
:101530004BF65C60C0F2000009F0F7FD039915A8B6
:10154000019001F0F5FB01990BA8029001F082FBDC
:1015500006980299B1E81C50A0E81C5091E81C5074
:1015600080E81C5020B0D0BD4BF66C60C0F200008B
:1015700009F0EEFDB0B502AF94B004910590079369
:101580000692139101F1080006A904F0C9FF20B9E1
:10159000FFE705990020086005E004998869C9699A
:1015A000884206D301E014B0B0BD0599022008605E
:1015B000F9E7049908A8FFF776FF04980069032863
:1015C00007D8FFE704980169481C884203900AD3B2
:1015D00005E0049890F82C00C00788B913E0039840
:1015E0000499086105E04BF67C60C0F2000009F048
:1015F0009CFD04988169481C8842029030D318E011
:101600000020129002E005201290FFE70498129942
:1016100001614169481C8842019004D3FFE70198A9
:1016200004994861E5E74BF68C60C0F2000009F0D0
:101630007CFD04990298886101F108000A684B68F2
:1016400005F032FA0599081D08AAB2E83850A0E85A
:10165000385092E8385080E8385001200860A2E7FE
:101660004BF69C60C0F2000009F05FFD80B56F464C
:1016700084B0019101460198029103904BF6AC6150
:10168000C0F20001072209F082FA04B080BD80B5E3
:101690006F4683B00091014600980191029003B01B
:1016A00080BDD4D480B56F46A4B00792089184461B
:1016B000CDF824C0B8680A90CDF870C01D911E9274
:1016C00007F8123C07F8110C4BF6E860C0F2000076
:1016D00020904BF63070C0F200002190D8B20B90F1
:1016E0000B99DFE801F0041325374900FEDE0A9864
:1016F000C0B201460691002856D0FFE7069802289E
:1017000066D0FFE70698042878D047E00A98C0B270
:1017100001460591002800F09580FFE70598022812
:1017200000F0A680FFE70598042800F0B98035E0B6
:101730000A98C0B201460491002800F0C980FFE772
:101740000498022800F0DA80FFE70498042800F0EB
:10175000EB8023E00A98C0B201460391002800F014
:10176000FB80FFE70398022800F00E81FFE7039853
:10177000042800F0218111E00A98C0B201460291CC
:10178000002800F03181FFE70298022800F0448130
:10179000FFE70298042800F05781FFE70A98C0B2DB
:1017A000012800F077818FE10898099BDDF81CC0C3
:1017B00053E8001F014503D143E800C2002AF7D1D6
:1017C000081AB0FA80F040090E918DF83C002DE027
:1017D0000898099BDDF81CC053E8001F014503D1A0
:1017E00043E800C2002AF7D1081AB0FA80F0400995
:1017F000BFF35F8F0E918DF83C0017E00898099BAE
:10180000DDF81CC0BFF35F8F53E8001F014503D113
:1018100043E800C2002AF7D1081AB0FA80F0400964
:10182000BFF35F8F0E918DF83C00FFE70E9801909B
:1018300022909DF83C0007F8010CC007002840F0FA
:10184000208119E10898099BDDF81CC0BFF35F8F68
:1018500053E8001F014503D143E800C2002AF7D135
:10186000081AB0FA80F040090E918DF83C00DDE7CF
:101870000898099BDDF81CC0BFF35F8F53E8001F79
:10188000014503D143E800C2002AF7D1081AB0FA93
:1018900080F04009BFF35F8F0E918DF83C00C5E7E3
:1018A0000898099BDDF81CC0BFF35F8F53E8001F49
:1018B000014503D143E800C2002AF7D1081AB0FA63
:1018C00080F04009BFF35F8F0E918DF83C00ADE7CB
:1018D0000898099BDDF81CC053E8001F014503D19F
:1018E00043E800C2002AF7D1081AB0FA80F0400994
:1018F000BFF35F8F0E918DF83C0097E70898099B26
:10190000DDF81CC053E8001F014503D143E800C2C5
:10191000002AF7D1081AB0FA80F04009BFF35F8FB0
:101920000E918DF83C0081E70898099BDDF81CC0FA
:10193000BFF35F8F53E8001F014503D143E800C2A6
:10194000002AF7D1081AB0FA80F04009BFF35F8F80
:101950000E918DF83C0069E70898099BDDF81CC0E2
:10196000BFF35F8F53E8001F014503D143E800C276
:10197000002AF7D1081AB0FA80F04009BFF35F8F50
:101980000E918DF83C0051E70898099BDDF81CC0CA
:10199000BFF35F8F53E8001F014503D143E800C246
:1019A000002AF7D1081AB0FA80F04009BFF35F8F20
:1019B0000E918DF83C0039E70898099BDDF81CC0B2
:1019C000BFF35F8F53E8001F014503D143E800C216
:1019D000002AF7D1081AB0FA80F04009BFF35F8FF0
:1019E0000E918DF83C0021E70898099BDDF81CC09A
:1019F000BFF35F8F53E8001F014503D143E800C2E6
:101A0000002AF7D1081AB0FA80F04009BFF35F8FBF
:101A10000E918DF83C0009E70898099BDDF81CC081
:101A2000BFF35F8F53E8001F014503D143E800C2B5
:101A3000002AF7D1081AB0FA80F04009BFF35F8F8F
:101A40000E918DF83C00F1E60898099BDDF81CC06A
:101A5000BFF35F8F53E8001F014503D143E800C285
:101A6000002AF7D1081AB0FA80F04009BFF35F8F5F
:101A70000E918DF83C00D9E601980D9001200C9054
:101A800004E001980D9000200C90FFE70C980D9950
:101A900024B080BD4BF6E860C0F200001690012033
:101AA00017904BF64870C0F20000016840681A9128
:101AB0001B9004201890002019904BF6C871C0F2BA
:101AC000000116A808F0B2FC4BF63070C0F200001E
:101AD0001090012011904BF64870C0F20000016890
:101AE00040681491159004201290002013904BF63A
:101AF000D871C0F2000110A808F098FC80B56F46BC
:101B000084B00090B81F019004F00FFA009801997A
:101B100000F002F804B080BDF0B503AF4DF8048DBD
:101B2000A0B00191014601980D9102F03FFB03F036
:101B3000D7F800F07FF8029003F0AAF800F07AF8E6
:101B4000039003F085F800F075F8049003F098F81E
:101B500000F070F8059003F0A3F800F06BF8DDF8E2
:101B600008C0039B049A059907F856CC07F8553C22
:101B700007F8542C07F8531C07F8520C03F0B8F878
:101B800000F058F8069003F06BF800F053F8079057
:101B900003F09EF800F04EF8089003F091F800F082
:101BA00049F8099003F064F800F044F8DDF818C033
:101BB000079B089A099907F851CC07F8503C07F899
:101BC0004F2C07F84E1C07F84D0C11A80B90A7F1ED
:101BD0005601A7F15102FEF756FF03F069F8002104
:101BE0000A9107F8131C17F8131C01F049FA0C901E
:101BF00003F026F80A9907F8121C17F8121C01F0D6
:101C00003FFADDF82CC00C9A0D990B46BCE87040E9
:101C1000A3E87040BCE87041A3E870419CE87041C3
:101C200083E8704181F8382081F8390020B05DF8F0
:101C3000048BF0BD80B56F4682B007F8010C00211F
:101C400007F8031C07F8021C17F8031C17F8022CEE
:101C500001F02AFA02B080BD80B56F4682B007F865
:101C6000010C01F0ABF802B080BD80B56F4684B0C6
:101C70000190039007F084FE27F8060CB81F08F0C7
:101C8000D1F8019807F085FE04B080BD80B56F469D
:101C900084B00190039000F04FFC27F8060CB81FA9
:101CA00008F0C0F8019800F04CFC04B080BDD4D41A
:101CB000D0B502AFADF5946D0D910F9047F8281C8B
:101CC0000F9890F83E000E900E99DFE801F00504A1
:101CD0000442464A4E00FEDE0D9847F82C0C0F9841
:101CE000806B47F8200C11A80A90FFF707FF0A99AC
:101CF0000F98B1E80C50A0E80C50B1E81C50A0E8D7
:101D00001C5091E81C5080E81C500F999DF87C00F5
:101D100081F83C000F999DF87D0081F83D000F98F7
:101D20000A21FEF72AFF0F994BF6E872C0F2000273
:101D300042A80B900D23FFF7C0F80B9920A80C9038
:101D4000FEF795FE0C990F984030882209F075FC3B
:101D50000FE00D9847F82C0C0BE00D9847F82C0C71
:101D600053E00D9847F82C0C5EE00D9847F82C0CCA
:101D700065E00F98403047F80C0C57F82C1CFFF723
:101D8000AEF860B1FFE701208DF843000F99032002
:101D900081F83E009DF843000DF5946DD0BD0F987D
:101DA000403000F0AEFC40F20300C0F2000008F04A
:101DB00018F8ADF892010DF5C97008F081F8FFE749
:101DC0000F9800F13C0175A8069002F0D8F80F9822
:101DD00000F13D0179A8079002F0D1F80699079A21
:101DE0006DA8089000F04BF9089965A8099000F0DB
:101DF00066F909990F984030B1E80C50A0E80C50F2
:101E000091E80C5080E80C50FFE70F98403047F8FD
:101E1000100C57F82C1C00F05DF98DF8F7019DF8B7
:101E2000F701022826D031E00F98403047F8140C13
:101E300057F82C1C00F02EFA002856D161E00F98BC
:101E4000403047F8180C57F82C1C00F093FA60B19A
:101E5000FFE701208DF843000F99062081F83E002E
:101E60009DF843000DF5946DD0BD0F98403000F003
:101E7000F2FBA5E701208DF843000F99042081F8BB
:101E80003E009DF843000DF5946DD0BD9DF8F7011F
:101E9000059007F8190C0F98403000F08CFC05985D
:101EA000C00788B1FFE70F99F6A8039000F0BAFFCA
:101EB0000399CEA8049000F045F904990F9840309A
:101EC000A02209F0BAFBBAE70F99A6A8019000F08A
:101ED0009BFF01997EA8029000F02EF902990F98BD
:101EE0004030A02209F0A9FB9EE701208DF84300B5
:101EF0000F99052081F83E009DF843000DF5946D83
:101F0000D0BD0F98403000F08EFB59E780B56F468A
:101F100082B0019100F015F802B080BD80B56F4627
:101F200081B0009001B080BD80B56F4682B0009056
:101F3000009800F013F80146684600F091FF02B0E7
:101F400080BD80B56F4682B0009101460098019037
:101F50008863002081F83E0002B080BD80B56F46E6
:101F600084B00190039040F25000C2F20000FEF7EE
:101F700086FB019902910299FEF7DDFA04B080BD5B
:101F800080B56F4600F000F880B56F4684B001A8B8
:101F9000009007F08CFA0098FFF7C0FF0390FEF75F
:101FA00043FA80B56F4640F20200C0F2000007F02D
:101FB00018FF80BD80B56F4682B00090019107F098
:101FC0001AFF02B080BD80B56F4682B000900191CB
:101FD00009F055F840B9FFE74BF6F570C0F2000084
:101FE00040F2191108F054FA02B080BD80B56F4676
:101FF00081B00090406801B080BD80B56F4681B06F
:102000000090006801B080BD80B56F468EB004902E
:102010000990FEF7C8FC0890089880B1FFE7049883
:1020200008990B910791079901910C918168029190
:102030000D918168481C884203900FD306E0002070
:102040000690FFE7059806990EB080BD01980299A9
:10205000039A049B9A6005910690F3E74CF2901066
:10206000C0F2000009F061F880B56F460B460146EA
:1020700018685A689B688B604A60086080BD80B5AC
:102080006F4694468E460146DEF80000DEF80420D6
:10209000DEF80830DEF80CE0C1F80CE08B604A6036
:1020A0000860DCF80000DCF80420DCF80830DCF81C
:1020B0000CC0C1F81CC08B614A61086180BD80B54D
:1020C0006F46B1E80C50A0E80C5091E80C5080E845
:1020D0000C5080BD80B56F468CB000910390049188
:1020E0000B9006900A90079000F11002134601939E
:1020F0000992089200F039FC30B1FFE7009901988D
:1021000000F033FC60B90FE0002007F8260C17F848
:10211000260C07F8270CFFE717F8270C0CB080BD3A
:10212000022007F8270CF7E7012007F8250C17F81D
:10213000250C07F8270CEFE780B56F46A02209F0C1
:102140007CFA80BD80B56F46A02209F076FA80BD8A
:1021500080B56F46982209F070FA80BDF0B503AFE4
:102160002DE9000BD2B0079109904391099890F89E
:1021700094000146089130B1FFE70898012856D035
:10218000FFE758E0FEDE079842900998D0F89000EB
:102190000490459009990A6848680A634863099859
:1021A00000F108010BA80390B1E81C50A0E81C50F6
:1021B00091E81C5080E81C500998303002904690FD
:1021C00040F20400C0F2000007F00BFEADF856002C
:1021D0000DF1560007F064FE0298FFF757FD06F078
:1021E00056FA0120002104F024FBDDF80CE08C46B7
:1021F000049947AA1346BEE87003A3E870039EE85B
:10220000700383E870036B46C3F804C018602CA801
:102210000590FEF78DFD059916A80690FEF721FCA6
:10222000069909983830582209F007FA06E000208C
:102230000028FCD10AE007984290FFE7099838305F
:1022400051904299FEF794FD30B912E04CF2B01073
:10225000C0F2000008F0EEFF01208DF82B00099974
:10226000032081F894009DF82B0052B0BDE8000BCC
:10227000F0BD0998383000F071FA00208DF82B007D
:102280000999012081F894009DF82B0052B0BDE817
:10229000000BF0BDF0B503AF4DF804BDE4B0049100
:1022A00006905691069890F89C000146059130B131
:1022B000FFE7059801282CD0FFE72EE0FEDE04980A
:1022C00055900698D0F8981058914CF2C413C0F26B
:1022D000000359A80246B3E87050A2E8705093E892
:1022E000705082E870506A4610604CF2C012C0F222
:1022F00000022EA80290012300F067FD029908A8B1
:102300000390FFF725FF03990698982209F095F9A5
:1023100006E000200028FCD109E004985590FFE772
:10232000069863905599FFF719FF30B912E04CF207
:10233000EC10C0F2000008F07DFF01208DF81F00B6
:102340000699032081F89C009DF81F0064B05DF899
:1023500004BBF0BD069800F04DF900208DF81F0079
:102360000699012081F89C009DF81F0064B05DF87B
:1023700004BBF0BDF0B503AF4DF804BDE4B004916B
:1023800006905691069890F89C000146059130B150
:10239000FFE7059801282CD0FFE72EE0FEDE049829
:1023A00055900698D0F8981058914CF20023C0F23E
:1023B000000359A80246B3E87050A2E8705093E8B1
:1023C000705082E870506A4610604CF2FC12C0F205
:1023D00000022EA80290012300F0F7FC029908A841
:1023E0000390FFF7B5FE03990698982209F025F9A6
:1023F00006E000200028FCD109E004985590FFE792
:10240000069863905599FFF7A9FE30B912E04CF297
:102410002820C0F2000008F00DFF01208DF81F00F9
:102420000699032081F89C009DF81F0064B05DF8B8
:1024300004BBF0BD069800F0DDF800208DF81F0009
:102440000699012081F89C009DF81F0064B05DF89A
:1024500004BBF0BD80B56F4682B000910146009884
:102460000190086048604BF64870C0F200000268B6
:1024700040688A60C86002B080BD80B56F468CB08D
:102480000091039007F81D1C03F0C5FE01F0EAF867
:1024900001460098029102A90191069107F8110CDA
:1024A0000021059105A900F037FD019805990890D4
:1024B000099102980A900B9102F09EFA0CB080BD2F
:1024C00080B56F468CB007F8251C049003F0A3FE7E
:1024D00001F0C8F8039003A801900690A7F1250029
:1024E00007900021059105A900F06BFD0198059961
:1024F0000890099103980A900B9102F07DFA0CB0B4
:1025000080BD80B56F4682B0019003F084FE01F07B
:1025100060F902B080BD80B56F4682B0019003F0D3
:102520007AFE01F0E1F802B080BD80B56F4681B05F
:102530000090007801B080BD80B56F46FFF731FD97
:1025400080BD80B56F4682B0014601910868496838
:10255000FFF730FD02B080BD80B56F4681B00090BE
:1025600001B080BD80B56F4681B0009001B080BDE4
:1025700080B56F4682B0009101900098FEF724F874
:1025800002B080BD80B56F4684B00090029090F894
:102590003E0001460191062806D80199DFE801F0C6
:1025A000060404080D12170004B080BD04B080BDFD
:1025B0000098403000F0A5F80EE00098403000F0A0
:1025C000FAF816E00098403000F02DF811E000987D
:1025D000403000F040F80CE000983D3000F000F989
:1025E00000983C3000F0FCF8009800F04CF804B083
:1025F00080BDF1E780B56F4684B00090029090F8FE
:1026000094000146019130B1FFE70198032804D0FE
:10261000FFE704B080BD04B080BD0098383000F002
:102620009DF804B080BD80B56F4684B000900290E4
:1026300090F89C000146019130B1FFE70198032812
:1026400004D0FFE704B080BD04B080BD0098FFF760
:10265000D1FF04B080BD80B56F4684B00090029079
:1026600090F89C000146019130B1FFE701980328E2
:1026700004D0FFE704B080BD04B080BD0098FFF730
:10268000B9FF04B080BD80B56F4682B00090019064
:102690002C3000F0BDF80098313000F0B9F802B0ED
:1026A00080BD80B56F4684B00090029040790146AD
:1026B000019130B1FFE70198032804D0FFE704B08F
:1026C00080BD04B080BD0098043000F099F804B0DB
:1026D00080BD80B56F4684B000900290007B0146BB
:1026E000019130B1FFE70198032804D0FFE704B05F
:1026F00080BD04B080BD00980430FFF7D2FF04B065
:1027000080BD80B56F4684B00090029090F8840040
:102710000146019130B1FFE70198032804D0FFE79B
:1027200004B080BD04B080BD0098083000F02AF8E5
:1027300004B080BD80B56F4683B0019090F858001A
:102740000146009130B1FFE70098032804D0FFE76D
:1027500003B080BD03B080BD03B080BD80B56F46BF
:1027600083B0019090F850000146009130B1FFE72E
:102770000098032804D0FFE703B080BD03B080BDFC
:1027800003B080BD80B56F4684B00090029090F891
:1027900074000146019130B1FFE70198032804D08D
:1027A000FFE704B080BD04B080BD00981030FFF793
:1027B000C1FF04B080BD80B56F4682B0009001902B
:1027C000FFF787FF00981030FFF783FF02B080BD4E
:1027D00080B56F4682B0019000F012FF02B080BD5C
:1027E00080B56F4682B00190FFF7F2FF02B080BD66
:1027F00080B56F4682B00190FFF7EAFF02B080BD5E
:1028000080B56F4682B0019001F026FB02B080BD1A
:1028100080B56F4684B00190039000200290FFE7DE
:102820000298052808D0FFE7019802990844013171
:102830000291FFF7DDFFF3E704B080BD80B56F467E
:1028400082B00090019102B080BD80B56F4681B02A
:10285000009001B080BD80B56F4682B0019000F05D
:102860003EFD00F04EFD02B080BD80B56F4694B0D5
:10287000029104900891049840790146039130B187
:10288000FFE7039801282AD0FFE72CE0FEDE02983C
:1028900007900498006801900A9003F0BCFC00F0D7
:1028A000E1FE069006A800900D90129006981390F5
:1028B00002F00DF80C900CA800F03EF800980C996E
:1028C0000E900F9106981090119102F095F80198D2
:1028D000FFF7C1FF00F0A4F80499087106E000209A
:1028E0000028FCD10AE002980790FFE70498043022
:1028F0000B90079901F0E9FA30B90FE04CF2A020F3
:10290000C0F2000008F096FC012007F8390C049989
:102910000320487117F8390C14B080BD04980430B6
:10292000FFF76EFF002007F8390C04990120487169
:1029300017F8390C14B080BD80B56F4684B00146DD
:102940000191032007F80E0C17F80E2C029107F8DE
:10295000022C086820F4403007F8012C02F0030232
:1029600040EA0240086004B080BD80B56F468EB07A
:10297000019103900A910398007B0146029130B1C6
:10298000FFE70298012815D0FFE717E0FEDE019867
:102990000990039801680C9107A8009001F0FBFAD8
:1029A000009905A800F033F803990598069A8A6003
:1029B000486006E000200028FCD10AE00198099058
:1029C000FFE7039804300D900999FFF74EFF30B9E7
:1029D0000FE04CF2B020C0F2000008F02BFC012008
:1029E00007F8250C03990320087317F8250C0EB07F
:1029F00080BD03980430FFF754FE002007F8250C33
:102A000003990120087317F8250C0EB080BD80B51E
:102A10006F460A460146106852684A60086080BDE9
:102A200080B56F4681B007F8010C01B080BD80B55C
:102A30006F4683B000900190029003B080BD80B5D6
:102A40006F4682B00190FFF7F2FFFFF79BFD02B0E7
:102A500080BD80B56F46BEB001913C903D91FFF7BF
:102A6000E6FF0199029004A80390FFF74FFA02983D
:102A70000399FDF7FBFD3EB080BD80B56F4682B087
:102A80000190FFF7D4FF02B080BD80B56F4683B0E0
:102A9000009001910290016003B080BD80B56F4647
:102AA0008AB0049105900790089159B1FFE7049905
:102AB000059AB2FBF1F000FB112001460391099049
:102AC00030B108E04CF23430C0F2000008F09FFB57
:102AD0000598069006E004980399421A02928842EB
:102AE0000AD302E006980AB080BD0599029808440E
:102AF0008842019009D305E04CF23430C0F2000066
:102B000008F026FB01980690ECE74CF23430C0F256
:102B1000000008F00AFB80B56F4683B00090029079
:102B200003B080BD80B56F4683B00090029003B0C3
:102B300080BD80B56F4681B00090B0FA80F040094A
:102B400001B080BD80B56F4684B0009107F8050CD8
:102B5000039118B9FFE70020019004E00098FDF709
:102B60006AFD0190FFE7019804B080BD80B56F4613
:102B700082B000900191FDF79BFE02B080BDD0B500
:102B800002AF90B002900EA80521FDF724FB0020B3
:102B90000390FFE70398019004280DD8FFE7019800
:102BA0000DF1100C0CEBC0020E9B0F994CF830305D
:102BB000516001300390EDE7029804A9B1E81C5080
:102BC000A0E81C5091E81C5080E81C5010B0D0BD0B
:102BD000D0B502AFB1E81C50A0E81C5091E81C50E1
:102BE00080E81C50D0BD80B56F4686B004900521AA
:102BF000FFF7BCFFFDF781FE01900291FFE701A8FE
:102C0000FDF7FDFE0390039828B1FFE703980590B8
:102C1000FDF7EEFAF3E706B080BD80B56F4686B0EB
:102C2000009201910290039004910592042A09D820
:102C3000FFE701990298009A00EBC200FDF702FB42
:102C400006B080BD00984CF25032C0F2000205215F
:102C500007F052FC80B56F468CB003910490099048
:102C60000A910020052107F09DFA05900691FFE7E3
:102C700005A807F08FFA079008910798C00730B1B0
:102C8000FFE7089802900B90052802D309E00CB0EA
:102C900080BD0298049901EBC0010191052808D379
:102CA0000FE002984CF26032C0F20002052107F0FA
:102CB00023FC01980399029A01EBC201FDF76CFB1A
:102CC000D6E702984CF27032C0F20002052107F0FC
:102CD00013FC80B56F468AB001910290079008916D
:102CE0000020052107F05EFA03900491FFE703A896
:102CF00007F050FA059006910598C00730B1FFE73C
:102D0000069800900990052802D309E00AB080BD1A
:102D100001990298009A00EBC200FDF7E3FAE6E79A
:102D200000984CF28032C0F20002052107F0E4FB6B
:102D300080B56F468AB001910290079008910020FB
:102D4000052107F02FFA03900491FFE703A807F08D
:102D500021FA059006910598C00730B1FFE7069863
:102D600000900990052802D309E00AB080BD0199BE
:102D70000298009A00EBC200FDF7E1FAE6E700983E
:102D80004CF29032C0F20002052107F0B5FB80B58D
:102D90006F4681B0FFE7012007F8030CFFE7FFE76C
:102DA00017F8030C01B080BD80B56F4681B000906C
:102DB0000068B0FA80F0400901B080BD80B56F4670
:102DC00081B007F8010C01B080BDB0B502AF84B08E
:102DD00000928C4601460098BA68CDF804C0029073
:102DE0000393C1F890C008604B6001F10800B2E89D
:102DF0003850A0E8385092E8385080E83850002029
:102E000081F8940004B0B0BD80B56F4682B00091E7
:102E1000014600980190C1F89800002081F89C00BC
:102E200002B080BD80B56F4682B000910146009827
:102E30000190C1F89800002081F89C0002B080BD8C
:102E400080B56F4681B000200090009801B080BD31
:102E500080B56F4682B001900090009802B080BDAE
:102E600080B56F4686B00290039100F01DF8FEF722
:102E7000F3FEB8B1FFE7A7F113000090059040F210
:102E80000900C0F2000006F0ACFF27F8120CA7F111
:102E9000120007F005F80098FEF7E7FE05F0F7FBD3
:102EA00007F03EF806B080BD80B56F4688B001914E
:102EB000014601980291059106900490FFF7C5FC28
:102EC000049850B1FFE7029804990791006806F052
:102ED000C5FC002007F8110C03E0012007F8110CD5
:102EE000FFE717F8110C08B080BD80B56F4686B0BB
:102EF0000190049007F0CCF90146019807F8011CF5
:102F000007F8091CFDF7C3FB0290A7F1090004F0C4
:102F100015F9029806B080BD80B56F468EB00A469E
:102F2000019207F8290C04920021009107F82D1C4A
:102F300017F82DCC059207F81DCC136823F0010378
:102F40008DF834C043EA0C0313608DF80C109DF823
:102F50000C30099207F80D3C116821F0020107F8C6
:102F6000023C41EA4301116000F0E3FA0099034694
:102F70000198079007F8153C026822F00C0207F848
:102F8000033C03F0030342EA8302026007F82B1CB0
:102F900017F82B1C00F08AFA0098019907F82A0C00
:102FA00017F82A2C0B9107F8052C086820F44030FC
:102FB00007F8012C02F0030240EA024008600EB05C
:102FC00080BD80B56F468EB0019101460198029197
:102FD000049001218DF80C109DF80C30059007F835
:102FE0001D3C026822F001028DF834301A43026061
:102FF00007F82B1C17F82B2C099007F80D2C0168EB
:1030000021F0020107F8022C41EA4201016000218F
:10301000009107F82A1C17F82A2C079007F8152C9E
:10302000016821F00C0107F8032C02F0030241EAC9
:10303000820101600299097800F038FA009801993C
:1030400007F8290C17F8292C0B9107F8052C0868AC
:1030500020F4403007F8012C02F0030240EA02405D
:1030600008600EB080BD80B56F4682B007F8020CD4
:1030700000F03DF807F8010C00F043F902B080BD04
:1030800080B56F4682B0009107F8020C07F8011C6A
:10309000FFF7E9FF009907F8030CF81EFFF7EDF9B9
:1030A00017F8030C02B080BD80B56F4684B0029162
:1030B0001346019307F8030C07F8021C07F8012CCC
:1030C000FFF7D1FF02998DF80C0021B1FFE703A8AB
:1030D000FFF721FA03E003A8FFF713FAFFE70199CE
:1030E00003A8FFF7EDF99DF80C0004B080BD80B592
:1030F0006F4682B007F8010C781EFFF716FA00F051
:10310000F9F802B080BD80B56F4682B000900191A1
:10311000FDF7B8FB02B080BD80B56F4681B007F8FF
:10312000020C07F8010C01B080BDF0B503AF4DF8FB
:1031300004BDA6B00291039025910FA80521FDF7CB
:103140004AF800200490FFE70498019004280DD865
:10315000FFE701980DF1140C0CEBC0020F9B1099C6
:103160004CF83030516001300490EDE7029801785E
:1031700011A805220092FCF7EFFF0298009A11991E
:10318000129B06930591417813A8FCF7E5FF02987E
:10319000009A1399149B08930791817815A8FCF75E
:1031A000DBFF0298009A1599169B0A930991C17842
:1031B00017A8FCF7D1FF0298009A1799189B0C9357
:1031C0000B91017919A8FCF7C7FF039819991A9A6E
:1031D0000E920D9105AB1BA90A46B3E87050A2E808
:1031E000705093E8705082E87050FFF7F1FC26B001
:1031F0005DF804BBF0BD80B56F4682B007F8011CD6
:10320000C9B200F002F802B080BD80B56F4686B04A
:10321000029103900491FFE7FFE7029805902028B0
:1032200008D8FFE703984CF2BC31C0F20001FFF769
:103230007CFF16E07F200190002028B9FFE702986C
:103240000199884206D3EDE74CF2AC30C0F20000A1
:1032500007F06BFF0298A0F120010091202806D30F
:1032600001E006B080BD00985F2806D311E04CF263
:10327000C430C0F2000007F06BFF0398009901EB27
:1032800081024CF2E431C0F200011144FFF74DFF1E
:10329000E7E700984CF2D432C0F200025F2107F059
:1032A0002BF980B56F4682B04FF4807000900820F3
:1032B0000190FFE74FF480700821FEF784FEFFE7DE
:1032C00008204FF4807102B080BD80B56F4682B097
:1032D000019002F0A0FFFFF728F902B080BD80B591
:1032E0006F4682B0019001A800F01FF800F002F8CC
:1032F00002B080BD80B56F4681B007F8010C01B007
:1033000080BD80B56F4682B007F8010C4CF2346185
:10331000C0F20001FFF700FF02B080BD80B56F462C
:1033200081B00090006801B080BD80B56F4682B06A
:103330000190FFF7F3FFFFF7C8FF02B080BD80B533
:103340006F4684B00146B868019300928DF808007A
:103350004B600A60087204B080BD80B56F4681B0D2
:103360000090006801B080BD80B56F4681B00090CC
:10337000006801B080BD80B56F4682B000900191B9
:10338000016002B080BD80B56F4682B000900191AF
:10339000016002B080BD80B56F4684B0019007F82F
:1033A000061C07F8052C039004F0DAF804B080BD81
:1033B00080B56F468AB007F8050C4CF27861C0F210
:1033C00000010991C0B201900199DFE801F0041EEB
:1033D0001F202100FEDE4CF27860C0F20000029057
:1033E000012003904BF64870C0F20000016840686D
:1033F0000691079004200490002005904CF2F8619B
:10340000C0F2000102A807F011F802E001E000E0BC
:10341000FFE70AB080BD80B56F4686B0D7F808C018
:1034200001900291039207F8063C07F805CC05903D
:10343000EE46CEF800C0FEF735F906B080BD80B587
:103440006F4684B000900390029004B080BD80B5B8
:103450006F4684B000900390029004B080BD80B5A8
:103460006F4681B00090006801B080BD80B56F46A6
:1034700081B0009001B080BD80B56F4684B00190EE
:10348000FFF7EDFF0290039004B080BD80B56F465A
:1034900082B0019000F0A0F802B080BD80B56F4608
:1034A00082B0019000F0A2F802B080BD80B56F46F6
:1034B00087B00090039007F8091CC8B201900199E9
:1034C000DFE801F005090D1115191D21FEDE0020B0
:1034D00007F8110C1BE0012007F8110C17E002207F
:1034E00007F8110C13E0032007F8110C0FE004207B
:1034F00007F8110C0BE0052007F8110C07E0062077
:1035000007F8110C03E0072007F8110CFFE70099FA
:1035100017F8112C059107F8022C086820F4E060D8
:1035200007F8012C02F0070240EA0220086007B009
:1035300080BD80B56F4682B007F8010CC0B201466D
:10354000009130B1FFE70098012806D0FFE708E0BE
:10355000FEDE002007F8020C07E0032007F8020C4B
:1035600003E0012007F8020CFFE717F8020C02B095
:1035700080BD80B56F468AB0039002F04CFE00F02B
:1035800071F8029002A8019005900020049004A810
:1035900000F00BF8019804990690079102980890A2
:1035A000099101F029FA0AB080BD80B56F4684B058
:1035B00001460191012007F80E0C17F80E2C02911C
:1035C00007F8022C086820F0020007F8012C40EAF6
:1035D0004200086004B080BD80B56F4682B00190A3
:1035E00002F019FE00F080F802B080BD80B56F4691
:1035F00082B0019002F00FFE00F0EBF802B080BD47
:1036000080B56F4682B00190FFF7B3FF02B080BD76
:1036100080B56F4682B0019000F050F900F01F00B5
:1036200002B080BD80B56F4684B0039000F046F9CB
:10363000C0F342100146019138B1FFE70198C0B2D2
:10364000012806D0FFE701F0DBFE4FF0A04002901A
:1036500005E040F20030C5F200000290FFE702985A
:1036600004B080BD80B56F468CB002900690FFF725
:10367000D9FF0146029804910391FFF7C9FF04990D
:10368000C0B2024605920791089020280BD3FFE7AD
:103690004CF20870C0F200004CF29872C0F20002C6
:1036A0001D2106F0E2FE05998800890F019039B9C5
:1036B000FFE7019901F5E0608842009006D30BE036
:1036C0004CF2A870C0F2000007F055FD4CF2B87043
:1036D000C0F2000007F029FD0398009909900A91B3
:1036E00008440B900CB080BD80B56F4690B001903F
:1036F0000490FFF797FF01460198059106914FF45A
:10370000A162079201F5A1610F91039103A90291B2
:1037100009910A900021089108A900F00BF802987D
:1037200008990B900C9103980D900E9101F08AF975
:1037300010B080BD80B56F468CB0049106900791A3
:103740000698FFF765FF0499C0B2024605920891FA
:103750000990012107F8051C20280BD3FFE74CF244
:103760000870C0F200004CF60802C0F200021D21F1
:1037700006F07BFE05980390002028B9FFE7039828
:103780000290002070B905E04CF61800C0F200006D
:1037900007F0F1FC029804990B9009680191202828
:1037A0000CD305E04CF62800C0F2000007F0BDFC89
:1037B0004CF63800C0F2000007F003FD04990198B0
:1037C000029A02F01F0301229A40104308600CB0D5
:1037D00080BD80B56F4690B001900490FFF722FF46
:1037E000014601980591069140F20C52079201F2B0
:1037F0000C510F91039103A9029109910A900021A4
:10380000089108A900F00BF8029808990B900C9108
:1038100003980D900E9101F04EF910B080BD80B567
:103820006F468CB00491069007910698FFF7F0FE62
:103830000499C0B20246059208910990012107F847
:10384000051C20280BD3FFE74CF20870C0F20000E3
:103850004CF2C872C0F200021D2106F006FE059867
:103860000390002028B9FFE703980290002070B968
:1038700005E04CF2D870C0F2000007F07CFC029822
:1038800004990B900968019120280CD305E04CF2B3
:10389000E870C0F2000007F048FC4CF2F870C0F28B
:1038A000000007F08EFC04990198029A02F01F03B1
:1038B00001229A40104308600CB080BD80B56F466D
:1038C00081B00090007801B080BD80B56F4682B0B5
:1038D0000190FFF7DBFD02B080BD80B56F4682B07E
:1038E0000190FFF7DBFD02B080BD80B56F4646F268
:1038F0000000C4F2000080BD80B56F46B0B0014644
:10390000069107F8850C4BF63870C0F200000F9056
:1039100002F0F1FC07900891FFE707A801F007FE0D
:1039200009900998D8B3FFE70998006803901190AF
:103930001290139040F22451149100F224502A90D6
:103940000A900AA802901F90002004901E901EA8C2
:1039500000F054F802981E99209021910A98229024
:10396000239101F095F803990498159116914FF45D
:10397000A462179201F5A4612B910B910BA90591FB
:103980001991189018A800F04FF8059818991A90F6
:103990001B910B981C901D9101F067F8BDE7062064
:1039A00007F88D0C17F88D0C02F095FC069917F8A6
:1039B0008D0C02F066FC17F88D0C02F07AFCFFF714
:1039C00094FF10902C902D904FF441712E9100F5A2
:1039D00041702F900D900DA801902590002024900B
:1039E00024A800F02BF801982499269027910D988F
:1039F0002890299101F013F830B080BD80B56F4652
:103A000084B001460191012007F80E0C17F80E2C26
:103A1000029107F8022C086820F0010007F8012C39
:103A20001043086004B080BD80B56F4682B0014687
:103A300001914FF0FF30086002B080BD80B56F4645
:103A400084B0014601910291012007F8010C086839
:103A500040F00040086004B080BD80B56F46EEB015
:103A6000FFF743FF01460F912B900020082106F03D
:103A700099FB10901191FFE710A806F08BFB1290B4
:103A800013911298C00700283ED0FFE70F991398B2
:103A9000149014980E9069916A9008280BD3FFE750
:103AA0004CF64800C0F200004CF66402C0F200027E
:103AB0001C2106F0DAFC0E998800890F0D9039B9A7
:103AC000FFE70D9901F5807088420C9006D30BE05A
:103AD0004CF67400C0F2000007F04DFB4CF6840079
:103AE000C0F2000007F021FB0F980C996B906C91CD
:103AF00008446D90159015A840901598419006F0D7
:103B000054FA0028B8D005E10F98619062904FF404
:103B1000BE71639100F5BE706490179017A8429033
:103B20001798439006F041FA10B9FFE76EB080BDD8
:103B30000F985D905E904FF4BE715F9100F5BE707E
:103B40006090189018A83A9000213B9118983C90EA
:103B50003D9106F0AEFA4BF63870C0F200002C90A2
:103B6000022102F0E0FB0A900A460A991CA80B9079
:103B700001F054FC0B9919A802F0DEFB19981A9970
:103B80001B9A219220911F90FFE71FA802F049FB8A
:103B90002290239123980028C8D0FFE7229808900C
:103BA0002D902398006809902E90339034904FF414
:103BB000A461359100F5A4605B90259025A83E9006
:103BC00025983F9000F05FFE24902498FFF74EFC6C
:103BD0002690FFE726A800F00EF927902891279855
:103BE000C00700284FD0FFE70999289807902F9029
:103BF0003691379020280BD3FFE74CF20870C0F2C3
:103C000000004CF29872C0F200021D2106F02DFC5B
:103C100007998800890F069039B9FFE7069901F5E1
:103C2000E0608842059006D30BE04CF2A870C0F229
:103C3000000007F0A0FA4CF2B870C0F2000007F0E4
:103C400074FA099805993890399108445A90299046
:103C500029A80390539058902998599000F037FE66
:103C6000529052A800F0A4F803985299549055919C
:103C700029985690579100F0BFFE08994801C90E47
:103C8000049029BB1DE00998309031904FF4A46155
:103C9000329100F5A4605C902A902AA802904C9082
:103CA00024A84D9000214B914BA900F09AF802985E
:103CB0004B994E904F912A985090519100F0D5FE1B
:103CC00063E7049907980844884201900AD305E005
:103CD0004CF6FC00C0F2000007F04DFA01983028C5
:103CE00006D30FE04CF6FC00C0F2000007F01DFA0E
:103CF000019940F29400C2F2000000EBC10003F011
:103D00007BFB67E701984CF60C12C0F200023021F1
:103D100006F0F2FB0F98659066904FF44271679140
:103D200000F542706890169016A80090459014A86F
:103D300046900021449144A900F01FF8009844994E
:103D400047904891169849904A9100F068FE14985F
:103D500007280AD8FFE7149940F25400C2F2000085
:103D600000EBC10003F048FB86E614984CF61C12E9
:103D7000C0F20002082106F0BFFB80B56F4684B098
:103D80000091029003910298006801901F2809D8C1
:103D9000FFE70099019800F01F02012090400860A1
:103DA00004B080BD4CF62C10C0F2000007F009FAF8
:103DB00080B56F4684B001460191002007F80E0CD3
:103DC00017F80E2C029107F8022C086820F44030F6
:103DD00007F8012C02F0030240EA0240086004B038
:103DE00080BD80B56F4682B0009001910098006858
:103DF000086002B080BD80B56F4688B00090049026
:103E00000068069090FAA0F0B0FA80F0079007984A
:103E100001900590202803D1FFE70020029003E0E5
:103E20000198202804D311E00298039908B080BDBE
:103E30000199009B01F01F02012000FA02FC1A68A0
:103E400022EA0C021A6003910290EDE74CF63C1056
:103E5000C0F2000007F0B5F980B56F468CB0039052
:103E600002F0D9F9FFF7FEFB029002A8019005903D
:103E70000A9002980B9000F02AFD049004A800F02C
:103E80000BF80198049906900791029808900991FF
:103E900000F0B2FD0CB080BD80B56F4684B0014625
:103EA0000191002007F80E0C17F80E2C029107F86C
:103EB000022C086820F4403007F8012C02F00302BD
:103EC00040EA0240086004B080BD80B56F468EB005
:103ED00002910490089104A8FFF7CEFA02F09BF932
:103EE000FFF7ECFCC0B2014603912F2833D8FFE75F
:103EF0000298039A40F29401C2F2000101EBC20160
:103F0000019102F0F1F90146019803F06CFA04A85E
:103F1000FFF7B2FA02F07FF9FFF7A4FB079007A8BA
:103F20000C9007980D9000F0D2FC069006A809901E
:103F3000BDF81A0000F003000A9007F8090C07F812
:103F4000210C4CF65C11C0F20001A7F1210000F039
:103F50005CFE60B907E003984CF64C12C0F2000218
:103F6000302106F0C9FA012007F8220C03E00020F6
:103F700007F8220CFFE717F8220C0EB080BD80B5C1
:103F80006F4682B0009101460098019008600020C1
:103F9000087302B080BD80B56F4682B000910146C3
:103FA0000098019008600020487102B080BD80B583
:103FB0006F4682B0009001914FF0FF3200F002F89E
:103FC00002B080BD80B56F46C4B0049205910390E5
:103FD000109011911292159005F0E7FF049A05993F
:103FE00003460693139010401140884208D0FFE723
:103FF00006980599049A11400840884226D103E0AA
:10400000012007F8F10CB1E04EF20000C4F201000B
:1040100014902490259040F2045026904EF20450C3
:10402000C4F201003F90089008A802903A90002046
:10403000399039A800F09EF8029839993B903C914C
:1040400008983D903E9100F049FD03E0022007F8FA
:10405000F10C8BE04EF20000C4F201001E901F90A4
:104060004FF4806020904EF20040C4F20100419075
:104070000A900AA831900A98329000F0F2FB099059
:1040800009A82B90099800F001002C900028E1D09D
:10409000FFE703980599049A61EA020116901791C7
:1040A00006F007F8FFE74EF20000C4F201001B9093
:1040B0001C904FF480601D904EF20040C4F201004D
:1040C00042900C900CA82F900C98309000F0C9FBF7
:1040D0000B900BA829900B9800F001002A90002863
:1040E000E1D0FFE74EF20000C4F2010021902290DF
:1040F00040F2045023904EF20450C4F2010040906C
:104100000D900DA8019034900020339033A800F05A
:1041100046F801983399359036910D98379038913B
:1041200000F0DCFCFFE74EF20000C4F20100189042
:1041300019904FF480601A904EF20040C4F20100D2
:1041400043900F900FA82D900F982E9000F089FBB0
:104150000E900EA827900E9800F0010028900028DD
:10416000E1D0FFE7002007F8F10CFFE717F8F10CAA
:1041700044B080BD80B56F4684B0014601910120F6
:1041800007F80E0C17F80E2C029107F8022C08689D
:1041900007F8012C62F30100086004B080BD80B50F
:1041A0006F4682B0019002B080BDD4D480B56F4616
:1041B000ADF5107D0E9001F0F6FE0E9800218DF801
:1041C0004210807801460F9130B1FFE70F98012827
:1041D00012D0FFE729E0FEDE40F20410C1F2000039
:1041E000259005F0E2FE2090010AC0F307208DF82B
:1041F0008710412837D818E041F20820C1F20000AA
:104200000021FFF7D4FE8DF844004CF65C11C0F29B
:10421000000111A800F09DFA01469DF842000843F4
:1042200000F001008DF84200FFE712210D9122916C
:1042300041F20020C1F20000FFF7B9FE0D998DF8A0
:10424000450041F20420C1F20000FFF7B0FE8DF8F6
:1042500046004CF65C11C0F200010DF1450000F083
:1042600078FA78BB23E041F20820C1F200005A211D
:104270000C91FFF79CFE8DF843004CF65C11C0F2E8
:1042800000010DF1430000F064FA0C9902469DF81C
:104290004200104300F001008DF8420040F25850F7
:1042A000C4F200002690279105F003FFBDE74CF60D
:1042B0005C11C0F200010DF1460000F04AFA8DF8E1
:1042C000470003E001208DF84700FFE79DF842001A
:1042D0009DF84710084300F001008DF842004CF6AD
:1042E0005D11C0F200010DF1450000F032FA50B945
:1042F000FFE74CF65D11C0F200010DF1460000F041
:1043000028FA60B1FFE740F20500C0F2000005F0B6
:1043100068FDADF8480012A805F0D2FDFFE70021C6
:10432000239141F20C20C1F200000122FFF74AFE66
:104330008DF84B004CF65C11C0F200010DF14B0002
:104340000B9000F006FA02460B989DF842101143BC
:1043500001F001018DF842104CF65D11C0F2000130
:1043600000F0F7F99DF84200C00740B9FFE70E984A
:104370004FF0804124910078C00710B92AE001F085
:10438000E6FF4FF080400A90319032904FF48070F9
:10439000339040F20010C4F200008E90139013A8E6
:1043A000589000210991599113985A905B9105F00A
:1043B00080FE09990A98289029902A918590149056
:1043C00014A850900121519114985290539105F0E6
:1043D00070FE08E00E98C07808900899DFE801F0B8
:1043E0001938577695004FF080402E902F904FF45B
:1043F0008070309040F20010C4F200008F90159051
:1044000015A85E9015985F9005F0CFFD0028EAD0C2
:10441000E0E74FF08040469047904FF4A36048900B
:1044200040F21850C4F200008690169016A807902B
:1044300061900020609060A800F0F6F807986099FD
:104440006290639116986490659100F06DFB7BE03B
:104450004FF08040439044904FF4A360459040F269
:104460001850C4F200008790179017A80690799012
:104470000020789078A800F0ECF8069878997A9067
:104480007B9117987C907D9100F04EFB5CE04FF0A3
:104490008040409041904FF4A360429040F2185009
:1044A000C4F200008890189018A80590739000201E
:1044B000729072A800F0E2F8059872997490759164
:1044C00018987690779100F02FFB3DE04FF08040F8
:1044D0003D903E904FF4A3603F9040F21850C4F2DC
:1044E00000008990199019A804907F9000207E9078
:1044F0007EA800F0D8F804987E9980908191199850
:104500008290839100F010FB1EE04FF080403A90C3
:104510003B904FF4A3603C9040F21850C4F200006E
:104520008A901A901AA803906D9000206C906CA845
:1045300000F0DDF803986C996E906F911A98709066
:10454000719100F0F1FAFFE74FF080400290379050
:1045500038904FF48270399040F20410C4F2000099
:104560008C901B901BA85490002155911B9856903D
:10457000579105F09EFD02982B902C9008202D90CD
:104580000820C4F2000084901C901CA84C900121CB
:104590004D911C984E904F9105F08BFDFFE74FF029
:1045A0008040349035904FF48270369040F2041081
:1045B000C4F200008D901D901DA85C901D985D9028
:1045C00005F0F3FC0028EAD0FFE70E984078C0071A
:1045D00058B9FFE70E980079FFF78EF90E984079E9
:1045E00001F095FC0DF5107D80BD4FF080404990A5
:1045F0004A904FF4AF604B9040F27850C4F2000004
:104600008B901E901EA8019067900020669066A86F
:1046100000F090F801986699689069911E986A90E8
:104620006B9100F06EFAD5E780B56F4684B0014615
:104630000191002007F80E0C17F80E2C029107F8D4
:10464000022C086807F8012C62F30100086004B02E
:1046500080BD80B56F4684B001460191022007F805
:104660000E0C17F80E2C029107F8022C086807F8B8
:10467000012C62F30100086004B080BD80B56F4674
:1046800084B001460191012007F80E0C17F80E2C9A
:10469000029107F8022C086807F8012C62F3010068
:1046A000086004B080BD80B56F4688B001460191B6
:1046B000012007F81E0C17F81E3C069107F8023C73
:1046C0000A6807F8013C63F301020A60049107F8E5
:1046D000090C086840F4003008600291002007F8D7
:1046E000110C086820F48030086008B080BD80B5E7
:1046F0006F4688B001460191012007F81E0C17F89B
:104700001E3C069107F8023C0A6807F8013C63F377
:1047100001020A60049107F8090C0A6842F40032A9
:104720000A60029107F8110C086840F480300860B4
:1047300008B080BD80B56F4684B0014601910291FA
:10474000012007F8010C086840F00100086004B07F
:1047500080BD80B56F4684B00090019100780290D2
:1047600009780391401AB0FA80F0400904B080BD86
:1047700080B56F4600F001F880BD80B56F46FFF749
:104780006CF980BD80B56F4682B0009005F080FD69
:104790000146009807F8011C07F8021C01F068FBAD
:1047A000B81E02F0CBFC02B080BD80B56F4684B06D
:1047B0000090029005F06CFD0146009807F8011C7E
:1047C00007F8091C01F06EF8A7F1090002F0B6FC29
:1047D00004B080BD80B56F4682B005F059FD07F882
:1047E000010C07F8030C00F0A3FDF81E02F0A6FC74
:1047F00002B080BD80B56F4684B00090029005F095
:1048000047FD0146009807F8011C07F8091C01F054
:104810005AF8A7F1090002F091FC04B080BD80B500
:104820006F4688B0019100900393029202A806900F
:1048300068460790029A0398009B0199D21A884112
:1048400005D3FFE7029803990591049004E00098CE
:1048500001990591049000E0FFE70498059908B0DC
:1048600080BD80B56F4684B001900290FFE701984B
:104870000421002200F03DF8FFE701980068039052
:10488000039804B080BD80B56F4684B0019002905B
:10489000FFE701980421002200F02BF8FFE70198C0
:1048A00000680390039804B080BD80B56F4684B063
:1048B00001900290FFE701980421002200F019F80E
:1048C000FFE7019800680390039804B080BD80B5AD
:1048D0006F4684B001900290FFE701980421002206
:1048E00000F007F8FFE7019800680390039804B010
:1048F00080BD80B56F4690B002910390134604933B
:104900000B900C9107F8092C4CF68810C0F20000AF
:104910000E904FF0553000EA5100081A4FF0333135
:1049200001EA900120F0CC30084400EB101020F098
:10493000F0304FF001314843000E0F900F980128DE
:1049400008D1FFE703980299024601920139084213
:104950001AD01DE04CF68810C0F20000059001202E
:1049600006904BF64870C0F200000168406809915B
:104970000A9004200790002008904CF6EC21C0F229
:10498000000105A805F052FD0498C00720B900E019
:1049900003E0019840B900E006E04CF69010C0F248
:1049A0000000E32105F074FD10B080BD80B56F46B6
:1049B00084B00091019002900391FFE701980421D7
:1049C000002200F0C4F8FFE700980199086004B0E5
:1049D00080BD80B56F4684B0009101900290039134
:1049E000FFE701980421002200F0B1F8FFE70098EA
:1049F0000199086004B080BD80B56F4684B0009115
:104A0000019002900391FFE701980421002200F039
:104A10009EF8FFE700980199086004B080BD80B55A
:104A20006F4684B00091019002900391FFE70198D6
:104A30000421002200F08BF8FFE70098019908603C
:104A400004B080BD80B56F4684B0009101900290A3
:104A50000391FFE701980421002200F078F8FFE7B6
:104A600000980199086004B080BD80B56F4684B09D
:104A70000091019002900391FFE701980421002228
:104A800000F065F8FFE700980199086004B080BD68
:104A900080B56F4684B00091019002900391FFE7CA
:104AA00001980421002200F052F8FFE700980199D4
:104AB000086004B080BD80B56F4684B0009101905D
:104AC00002900391FFE701980421002200F03FF8D3
:104AD000FFE700980199086004B080BD80B56F467B
:104AE00084B00091019002900391FFE701980421A6
:104AF000002200F02CF8FFE700980199086004B04C
:104B000080BD80B56F4684B0009101900290039102
:104B1000FFE701980421002200F019F8FFE7009850
:104B20000199086004B080BD80B56F4684B00091E3
:104B3000019002900391FFE701980421002200F008
:104B400006F8FFE700980199086004B080BD80B5C1
:104B50006F4690B001910290134603930A900B9117
:104B600007F80D2C4CF68812C0F200020D920E9040
:104B70004FF0553000EA5100081A4FF0333101EA86
:104B8000900120F0CC30084400EB101020F0F03001
:104B90004FF001314843000E0F900F98012808D1C3
:104BA000FFE70298019902460092013908421AD0A3
:104BB0001DE04CF68810C0F2000004900120059022
:104BC0004BF64870C0F200000168406808910990F7
:104BD00004200690002007904CF6EC21C0F2000162
:104BE00004A805F023FC0398C00720B900E003E007
:104BF000009840B900E006E04CF6FC20C0F200004E
:104C0000E42105F045FC10B080BD80B56F4683B04F
:104C100000900191007807F8020C097807F8011C50
:104C2000401AB0FA80F0400903B080BD80B56F46ED
:104C300005F04FFB80BD80B56F4605F04DFB80BD94
:104C400080B56F4682B0781E00F0A6FA02B080BD33
:104C500080B56F4682B0781E00F016FA02B080BDB3
:104C600080B56F4682B0781E00F0CAF902B080BDF0
:104C700080B56F4682B0781E00F0F4FA02B080BDB5
:104C800080B56F4682B0781E00F0A8FA02B080BDF1
:104C900080B56F4682B0781E00F05CFA02B080BD2D
:104CA00080B56F4682B0781E00F010FA02B080BD69
:104CB00080B56F4682B0781E00F0C4F902B080BDA6
:104CC00080B56F4682B0781E00F010FB02B080BD48
:104CD00080B56F4682B0781E00F0E6FA02B080BD63
:104CE00080B56F4682B0781E00F012FA02B080BD27
:104CF00080B56F4682B0781E00F092FA02B080BD97
:104D000080B56F4680BD80B56F4680BD80B56F466B
:104D100080BD80B56F4680BD80B56F4680BD80B5D3
:104D20006F4680BD80B56F4680BD80B56F4680BD43
:104D300080B56F4680BD80B56F4680BD80B56F463B
:104D400080BD80B56F4680BD80B56F4680BD80B5A3
:104D50006F4680BD80B56F4680BD80B56F4680BD13
:104D600080B56F4680BD80B56F4680BD80B56F460B
:104D700080BD80B56F4680BD80B56F4680BD80B573
:104D80006F4680BD80B56F4680BD80B56F4680BDE3
:104D900080B56F4680BD80B56F4680BD80B56F46DB
:104DA00080BD80B56F4680BD80B56F4680BD80B543
:104DB0006F4680BD80B56F4680BD80B56F4680BDB3
:104DC00080B56F4680BD80B56F4680BD80B56F46AB
:104DD00080BD80B56F4680BD80B56F4680BD80B513
:104DE0006F4680BD80B56F4680BD80B56F4680BD83
:104DF00080B56F4680BD80B56F4680BD80B56F467B
:104E000080BD80B56F4680BD80B56F4680BD80B5E2
:104E10006F4680BD80B56F4680BD80B56F4680BD52
:104E200080B56F4680BD80B56F4680BD80B56F464A
:104E300080BD80B56F4680BD80B56F4680BD80B5B2
:104E40006F4680BD80B56F4680BD80B56F4680BD22
:104E500080B56F4680BD80B56F4680BD80B56F461A
:104E600080BD80B56F4680BD80B56F4680BD80B582
:104E70006F4680BD80B56F4680BD80B56F4680BDF2
:104E800080B56F4680BD80B56F4680BD80B56F46EA
:104E900080BD80B56F4680BD80B56F4680BD80B552
:104EA0006F4680BD80B56F4680BD80B56F4680BDC2
:104EB00080B56F4680BD80B56F4680BD80B56F46BA
:104EC00080BD80B56F4680BD80B56F4680BD80B522
:104ED0006F4680BD80B56F4680BD80B56F4680BD92
:104EE00080B56F4680BD80B56F4680BD80B56F468A
:104EF00080BD80B56F4680BD80B56F4680BD80B5F2
:104F00006F4680BD80B56F4680BD80B56F4680BD61
:104F100080B56F4680BD80B56F4680BD80B56F4659
:104F200080BD80B56F4680BD80B56F4680BD80B5C1
:104F30006F4680BD80B56F4680BD80B56F4680BD31
:104F400080B56F4680BD80B56F4680BD80B56F4629
:104F500080BD80B56F4680BD80B56F4680BD80B591
:104F60006F4680BD80B56F4680BD80B56F4680BD01
:104F700080B56F4680BD80B56F4680BD80B56F46F9
:104F800080BD80B56F4680BD80B56F4680BD80B561
:104F90006F4680BD80B56F4680BD80B56F4680BDD1
:104FA00080B56F4680BD80B56F4680BD80B56F46C9
:104FB00080BD80B56F4680BD80B56F4680BD80B531
:104FC0006F4680BD80B56F4680BD80B56F4680BDA1
:104FD00080B56F4680BD80B56F4680BD80B56F4699
:104FE00080BD80B56F4680BD80B56F4680BD80B501
:104FF0006F4680BD80B56F4680BD80B56F4680BD71
:1050000080B56F4684B0039000200146029150B9EC
:10501000FFE702990B2050FA81F1C8B20A460192CB
:10502000884209D105E04CF65040C0F2000006F07D
:10503000A2F8019804B080BD4CF65040C0F20000C8
:1050400006F073F880B56F4684B0039000200146E7
:10505000029150B9FFE702990E2050FA81F1C8B2CF
:105060000A460192884209D105E04CF66040C0F240
:10507000000006F080F8019804B080BD4CF6604056
:10508000C0F2000006F051F880B56F4684B003907E
:1050900000200146029150B9FFE702990F2050FA13
:1050A00081F1C8B20A460192884209D105E04CF666
:1050B0007040C0F2000006F05EF8019804B080BDB8
:1050C0004CF67040C0F2000006F02FF880B56F4635
:1050D00084B0039000200146029150B9FFE7029985
:1050E000132050FA81F1C8B20A460192884209D1D0
:1050F00005E04CF68040C0F2000006F03CF8019854
:1051000004B080BD4CF68040C0F2000006F00DF8FF
:1051100080B56F4684B0039000200146029150B9DB
:10512000FFE70299152050FA81F1C8B20A460192B0
:10513000884209D105E04CF69040C0F2000006F02C
:105140001AF8019804B080BD4CF69040C0F20000FF
:1051500005F0EBFF80B56F4684B003900020014658
:10516000029150B9FFE70299162050FA81F1C8B2B6
:105170000A460192884209D105E04CF6A040C0F2EF
:10518000000005F0F8FF019804B080BD4CF6A04087
:10519000C0F2000005F0C9FF80B56F4684B00390EF
:1051A00000200146029150B9FFE70299172050FAFA
:1051B00081F1C8B20A460192884209D105E04CF655
:1051C000B040C0F2000005F0D6FF019804B080BDE9
:1051D0004CF6B040C0F2000005F0A7FF80B56F4666
:1051E00084B0039000200146029150B9FFE7029974
:1051F000182050FA81F1C8B20A460192884209D1BA
:1052000005E04CF6C040C0F2000005F0B4FF019884
:1052100004B080BD4CF6C040C0F2000005F085FF30
:1052200080B56F4684B0039000200146029150B9CA
:10523000FFE702991C2050FA81F1C8B20A46019298
:10524000884209D105E04CF6D040C0F2000005F0DC
:1052500092FF019804B080BD4CF6D040C0F200002F
:1052600005F063FF80B56F4684B0039000200146CF
:10527000029150B9FFE702991E2050FA81F1C8B29D
:105280000A460192884209D105E04CF6E040C0F29E
:10529000000005F070FF019804B080BD4CF6E040BE
:1052A000C0F2000005F041FF80B56F4684B0039066
:1052B00000200146029150B9FFE702991F2050FAE1
:1052C00081F1C8B20A460192884209D105E04CF644
:1052D000F040C0F2000005F04EFF019804B080BD20
:1052E0004CF6F040C0F2000005F01FFF80B56F469D
:1052F00084B0039020200290002050B9FFE702996B
:10530000052050FA81F1C8B20A460192884209D1BB
:1053100005E04CF60050C0F2000005F02CFF0198AB
:1053200004B080BD4CF60050C0F2000005F0FDFE58
:1053300080B56F4682B000F03BFE02B080BD80B504
:105340006F4682B0019000F0E1F802B080BD80B5F8
:105350006F4682B0019038B9FFE74CF61050C0F2AA
:105360000000D22105F094F802B080BD80B56F46F0
:1053700082B001900430FFF7E2FF02B080BD80B53B
:105380006F4688B00191049000F00EF802900391EE
:10539000029818B9FFE7019804F0B2FF0298039948
:1053A0000690079108B080BD80B56F468EB0029020
:1053B00006904FF0FF31079108910990006870B98D
:1053C000FFE702984FF0FF310160059005990091C9
:1053D0000A9104300B90014601910C9002E00020EC
:1053E000039009E00198FFF7B2FFFFE700980199E9
:1053F0000D9103910490FFE7039804990EB080BDCE
:1054000080B56F4600F001F8FEDE80B56F464CF6C1
:10541000E250C0F20000C72105F03AF880B56F46AF
:1054200083B00091014600980190029208604A60A2
:105430000020886003B080BD80B56F468AB007F851
:10544000050C4CF65471C0F200010991C0B20190F4
:105450000199DFE801F0041E1F202100FEDE4CF65A
:105460005470C0F200000290012003904BF6487087
:10547000C0F2000001684068069107900420049083
:10548000002005904CF65C71C0F2000102A804F007
:10549000CDFF02E001E000E0FFE70AB080BD80B58B
:1054A0006F4684B0019007F8051C039001F082FB61
:1054B00004B080BD80B56F4684B00090019107F8BC
:1054C000052C039001F0D8FB04B080BD80B56F4679
:1054D0008AB0009101900390049105910690079184
:1054E0000890FFE701980099099000EB8100029075
:1054F000FFE7019802990AB080BD80B56F4682B07F
:1055000007F8010C01F070FC02B080BD80B56F4659
:1055100081B00090016808680130086001B080BD6A
:1055200080B56F4681B00090006801B080BD80B545
:105530006F468DB000900690012107910891016897
:105540000391406801900990FFE7019803A90A912F
:10555000049004A80B9003980499884205D0FFE7B3
:10556000009903980430086002E00020029009E0EE
:105570000398059005A80C9003980290FFE7029805
:105580000DB080BDFBE780B56F4641F20000C4F26C
:10559000010080BD80B56F4684B00246029203913F
:1055A000500A02F0010381EAC35111EBC25140F1EC
:1055B000000000910190002020B9FFE701990098B8
:1055C00004B080BD4DF29800C0F2000005F0ADFDC2
:1055D00080B56F4682B00146019101F1100088420A
:1055E000009004D3FFE70098202806D30CE04DF28A
:1055F000A800C0F2000005F098FD009800F01F011F
:105600000120884002B080BD4DF2B800C0F2000019
:1056100005F0D7FD80B56F46BCB00A4601920E90EA
:1056200007F8B11CFFF7AFFF0690014602911090FA
:10563000179003211891199040F24C511A9100F2E1
:105640004C503990089008A803902C9000200590A9
:105650002B902BA800F06CF803982B992D902E918D
:1056600008982F903091FFF7A1F9059806991E919F
:105670001F914FF44172209201F541713A910991C5
:1056800009A904913291319031A800F060F8049892
:10569000319933903491099835903691FFF799F903
:1056A00006981190129008211391083038900A90B2
:1056B0000AA825900121079126910A982790289100
:1056C00004F0F7FC059A0698079914901590169225
:1056D00037900B900BA8219022910B982390249146
:1056E00004F0E7FCFFE702981B901C9040F2045185
:1056F0001D9100F204503B900C900CA829900C983E
:105700002A90FFF7D2F80028EDD1FFE70199112088
:10571000009007F8BA0C17F8BA0C00F0B2FD009828
:1057200007F8B90C17F8B90C00F0C3FD3CB080BD08
:1057300080B56F4684B00146019102914FF400029A
:105740000392086862F31700086004B080BD80B55A
:105750006F4688B0014601910291012007F8110CB3
:105760000A6842F002020A6004910322059207F8D7
:10577000050C13200790086840F40020086008B06A
:1057800080BD80B56F46BAB001900990FFF7FBFE6F
:10579000014602910A900F9010904FF4827111917E
:1057A00000F582703890039003A8329003983390EC
:1057B00004F0FBFB012817D1FFE702980C900D9035
:1057C0004FF482710E9100F582703990049004A814
:1057D0002A9000212B9104982C902D9104F069FCC3
:1057E000019800F068F8FFE702981E9003211F91CE
:1057F00020904FF4A671219100F5A6703490059089
:1058000005A830900598319004F0CFFB012819D1FC
:10581000FFE702981A9003211B911C904FF4A67188
:105820001D9100F5A6703590069006A826900021DF
:10583000279106982890299104F03BFC019800F0EC
:105840003AF8FFE7029800210B91169017911890F3
:105850004FF4A071199100F5A0703690079007A839
:105860002E9007982F9004F0A0FB012818D1FFE795
:10587000029812900021139114904FF4A072159287
:1058800000F5A0703790089008A8229023910898FE
:105890002490259104F00DFC0198FEF786FFFFE7A8
:1058A0003AB080BD80B56F4682B00090009800F09D
:1058B00099F802B080BD80B56F4682B00190FEF7C6
:1058C00099FF02B080BD80B56F46A4B00A90FFF783
:1058D0005AFE0146089110900A981030002107F8EE
:1058E000621C17F8621CFFF7DAFD0146481C88426B
:1058F000099035D3FFE7099911910A9810300022D9
:10590000029207F8612C17F8612CFFF7D3FD099A72
:105910000298D105520A0392139212910C900A98A0
:10592000FDF78DFD0D900DA815900D9801F097FADB
:10593000099B024602988C460399E646CDF810E092
:105940009646CDF814E0CDF85CC016924FF44002B4
:1059500012EBC35241F100010692079170B905E0C4
:105960004DF2C800C0F2000005F0DFFB0498079973
:10597000059A069BD21A884108D305E04DF2D8005B
:10598000C0F2000005F0D1FB24B080BD089819904A
:105990001A904FF441711B9100F5417023900E90C5
:1059A0000EA801901D900CA81E9000211C911CA90E
:1059B00000F00AF801981C991F9020910E982190F0
:1059C0002291FFF706F8DFE780B56F4684B00191BA
:1059D0000290039102980068FFF7FAFD01990860B0
:1059E00004B080BD80B56F46A2B005901390002032
:1059F00003900990FFF7C7FD039915901790189031
:105A00004FF44272199200F5427021900A900AA850
:105A100004901B9009A81C901A911AA900F066F82E
:105A200004981A991D901E910A981F902091FEF7D4
:105A3000D0FF0598FDF703FD0B900BA816900B986F
:105A40004FF0FF331A4601F013FA05980830FDF7BE
:105A5000FEFC4DF2E801C0F20001FFF790FC0F9050
:105A600010910FA80790FFF75BFD0146059806917E
:105A700000F0C0F9024606980B4601F094FA02467F
:105A8000079808920A4608990D920C91FFF76EFC50
:105A9000FFE705980C9A0D9B00F036F820BBFFE756
:105AA00005980830FDF7D3FC4DF2F801C0F2000173
:105AB000FFF765FC1190129111A80190FFF730FDDE
:105AC00001460598009100F095F9024600980B46B2
:105AD00001F069FA0246019802920A4602990D9273
